:1000000067C08BC08AC089C088C018C286C085C03E
:1000100084C083C082C081C080C07FC07EC0000019
:10002000000037000000000038000102000004005A
:10003000000000000000000036000202020202027E
:1000400002020202010204081020200410087E307F
:100050006D79335B5F707F7B771F0D3D4F470000ED
:100060000000000000000000000000000000000090
:1000700000000000000000000000800180007E30D1
:100080006D79335B5F707F7B0000000000000077BC
:100090001F0D3D4F4700370000000E0000006700B5
:1000A00000000000000000000000000000080077D1
:1000B0001F0D3D4F4700370000000E00151D670063
:1000C0000000000000000000000000000000EF053C
:1000D00011241FBECFE5D2E0DEBFCDBF10E0A0E609
:1000E000B0E0ECE4F1E102C005900D92AA36B10750
:1000F000D9F720E0AAE6B0E001C01D92A93FB207FF
:10010000E1F710E0C8E6D0E003C02197FE0116D861
:10011000C736D107D1F721D217C872CF90E0FC01C2
:10012000E65DFF4F3491FC01EC5BFF4F2491FC0135
:10013000E65CFF4FE491EE23B9F0332329F032302F
:1001400001F198F43130C9F0F0E0EE0FFF1FEC5DE3
:10015000FF4FA591B4918FB7F894EC91611114C041
:1001600020952E232C938FBF0895333011F0343017
:1001700059F78CB58F7D8CBDE7CF8AB58F778ABD57
:10018000E3CF8AB58F7DFBCF2E2BECCFCF93DF93C0
:1001900090E0FC01EC5BFF4F2491865C9F4FFC01DB
:1001A00084918823D1F090E0880F991FFC01E25ED2
:1001B000FF4FA591B491FC01EC5DFF4FC591D49127
:1001C000623071F49FB7F8943C91822F809583231D
:1001D0008C93E8812E2B28839FBFDF91CF910895C8
:1001E0008FB7F894EC912E2B2C938FBFF6CF3FB79F
:1001F000F89480916F0090917000A0917100B0917F
:10020000720022B708B601FE05C02F3F19F0019613
:10021000A11DB11D3FBFBA2FA92F982F8827BC0160
:10022000CD01620F711D811D911D42E0660F771F88
:10023000881F991F4A95D1F708958F929F92AF9288
:10024000BF92CF92DF92EF92FF924B015C01CFDF22
:100250006B017C01CCDF6C197D098E099F09683E1A
:10026000734081059105B0F321E0821A9108A1083D
:10027000B10888EEC80E83E0D81EE11CF11C811481
:100280009104A104B10431F7FF90EF90DF90CF907B
:10029000BF90AF909F908F9008952FB7F894609182
:1002A0006B0070916C0080916D0090916E002FBF7B
:1002B0000895CF92DF92EF92FF920F931F93CF9307
:1002C000DF9300D0CDB7DEB769834A83880F991FCB
:1002D0000091F7001091F800000F111FE1EAF0E023
:1002E0009F01215A30402017310714F41192F8CFA2
:1002F0002981FC01EF55FF4F21838A81808360E0D3
:100300008091F5000BDF10161106ECF40150110975
:10031000F801EF55FF4FE080D090F300C090F1005E
:1003200088E0F82E6E2D661F6627661F8C2DF6DE80
:10033000EE0C61E08D2DF2DE60E08D2DEFDEFA94A3
:10034000F110F0CFE0CF61E08091F5000F900F90B9
:10035000DF91CF911F910F91FF90EF90DF90CF90A1
:10036000DDCEEF92FF920F931F93CF937C018C0110
:1003700083E0000F111F8A95E1F70F541F4FC1E072
:10038000F80111928F0140E06C2FC70192DFCF5F1F
:10039000C930B1F7CF911F910F91FF90EF90089561
:1003A0002091F7003091F8001216130684F46031A2
:1003B00070F4E62FF0E0E25BFF4F4491FC01EF5553
:1003C000FF4F408B61E0680F90E080E072CF0895AE
:1003D000462F2091F7003091F800121613064CF4C6
:1003E000FC01EF55FF4F608B61E0680F90E080E00B
:1003F00060CF08950F931F93482FE7E4F0E06491D6
:10040000EDE3F0E0E4918111462FF0E0EE0FFF1FE5
:10041000EC5CFF4F8591949100E412E42FE030E012
:1004200057D0611571058105910529F06F5F7F4FE8
:100430008F4F9F4F9F701F910F9108951F920F92A2
:100440000FB60F9211242F933F938F939F93AF93E7
:10045000BF9380916B0090916C00A0916D00B09162
:100460006E0030916A0023E0230F2D3758F5019676
:10047000A11DB11D20936A0080936B0090936C00C6
:10048000A0936D00B0936E0080916F00909170000A
:10049000A0917100B09172000196A11DB11D8093D1
:1004A0006F0090937000A0937100B0937200BF91A1
:1004B000AF919F918F913F912F910F900FBE0F9011
:1004C0001F90189526E8230F0296A11DB11DD2CFCB
:1004D000CF92DF92EF92FF920F931F93E82FF92FA5
:1004E00005C0015011092109310961F1908196235C
:1004F0009417B9F305C0015011092109310911F10F
:10050000908196239413F7CFC12CD12CE12CF12CA0
:100510000AC08FEFC81AD80AE80AF80A0C151D0598
:100520002E053F0579F080818623841791F36C2D89
:100530007D2D8E2D9F2D1F910F91FF90EF90DF90BD
:10054000CF90089560E070E080E090E01F910F91FF
:10055000FF90EF90DF90CF90089578948AB58260F5
:100560008ABD8AB581608ABD83B7826083BF83B745
:10057000816083BF89B7826089BF80B7826080BF96
:1005800080B7816080BF329A319A309A379A8CB5A1
:1005900080648CBD8091F7009091F80018161906C0
:1005A0002CF441E06CE090E080E083DE8091F70085
:1005B0009091F800181619061CF490E080E0D1DE46
:1005C0008091F7009091F800181619062CF448E075
:1005D0006AE090E080E06DDE62E083E0D7DD61E01C
:1005E00084E0D4DD60E084E099DD10929C001092FC
:1005F0009B0060E083E090E0D3DE65E082E090E085
:10060000CFDE61E081E090E0CBDE66E090E080E06C
:10061000C7DEE1E6CE2EE0E0DE2E8601F801619134
:100620008F0184E090E0D4DE69E170E080E090E04A
:1006300004DEF0E009361F0789F7C1E6D0E06991D2
:1006400085E090E0C5DE69E170E080E090E0F5DDF6
:100650000C171D07A1F701E610E0F80161918F0169
:1006600086E090E0B5DE69E170E080E090E0E5DDF5
:10067000C017D10791F701E610E0F80161918F01F1
:1006800087E090E0A5DE69E170E080E090E0D5DDF4
:100690000C171D0791F761E084E040DD68EC70E025
:1006A00080E090E0CADD60E084E038DD79E6E72EA6
:1006B00070E0F72E8701F80162918F0187E090E0EA
:1006C00087DE69E170E080E090E0B7DDC016D1061A
:1006D00091F760E087E090E07BDE69E170E080E028
:1006E00090E0ABDDC9E6D0E06A9186E090E070DE94
:1006F00069E170E080E090E0A0DD0C171D07A1F734
:1007000060E086E090E064DE69E170E080E090E027
:1007100094DD09E610E0F80162918F0185E090E038
:1007200057DE69E170E080E090E087DDC017D10717
:1007300091F760E085E090E04BDE69E170E080E0F9
:1007400090E07BDDF70162917F0184E090E040DE84
:1007500069E170E080E090E070DDCE15DF0591F793
:1007600060E084E090E034DE69E170E080E090E0F9
:1007700064DD8091F7009091F800181619061CF4BA
:1007800090E080E0EEDD60E083E090E009DE109232
:100790008D0010928E0010928F0010929000CAE08F
:1007A000D0E044E6242E312C58EE852E53E0952ED1
:1007B00060E0A62E60E0B62E70DD80E01BDE609368
:1007C0009D0070939E0080939F009093A00081E015
:1007D00011DE00919B0010919C00C0909D00D09074
:1007E0009E00E0909F00F090A0006C0D7D1D8E1D7E
:1007F0009F1D5ED39B01AC0160E074E284E799E445
:10080000BCD220E030E040E05FE306D420E030E0FE
:1008100040E752E401D41ED3AB0170939C00609377
:100820009B00CB01801B910B0091950010919600CD
:100830008A3892400CF5F801EE0FFF1FEF56FF4F7C
:10084000208131818091970090919800A09199002A
:10085000B0919A00821B930BA109B1095183408387
:10086000840F951FA11DB11D809397009093980050
:10087000A0939900B0939A000F5F1F4F10939600BA
:100880000093950060919700709198008091990075
:1008900090919A00969587957795679507D32B0148
:1008A0003C0140928D0050928E0060928F007092B9
:1008B00090000230110524F01092960010929500DD
:1008C000C301B201C2D29B01CB01BE0110D4482F9B
:1008D000CB01BE010CD46C01C901B10108D4CB011C
:1008E000BE0105D47C01C901B40101D4CB01BE0114
:1008F000FED38C01642F83E090E052DDC114D1045B
:1009000009F022C1E114F10409F01EC1011511051D
:1009100009F01AC160E082E090E05ADD60E081E019
:1009200090E056DD60E090E080E052DD20E030E0D5
:100930004AE753E4C301B20120D220E030E040E0B6
:1009400050E4B2D182D26B018B0120E030E849EF54
:1009500053E4C301B2010DD287FF10C060E084E010
:1009600090E036DD60E085E090E032DD60E086E03A
:1009700090E02EDD60E087E090E02ADD20E030E0CE
:100980004AEF53E4C301B20143D387FD16C00830D8
:1009900011059CF4F601EF59FF4F608184E090E06F
:1009A00017DD60E085E090E013DD60E086E090E038
:1009B0000FDD60E087E090E00BDDC6010897089747
:1009C000A0F46FEF84E090E003DDF601EF59FF4FF4
:1009D0003897608185E090E0FBDC60E086E090E0A5
:1009E000F7DC60E087E090E0F3DCC6014097089711
:1009F000A0F46FEF84E090E0EBDC6FEF85E090E037
:100A0000E7DCF601EF59FF4F7097608186E090E0D8
:100A1000DFDC60E087E090E0DBDCC6014897079709
:100A200008F0AAC06FEF84E090E0D2DC6FEF85E0C1
:100A300090E0CEDC6FEF86E090E0CADCC6018F5913
:100A40009F4F6C0198E1C91AD108F601608187E0D7
:100A500090E0BEDC8091850081110CC01EDC6093AB
:100A6000810070938200809383009093840081E0E2
:100A7000809385008091790081110CC00EDC609319
:100A8000750070937600809377009093780081E0F2
:100A90008093790020E030E340EC55E4C301B201DB
:100AA000B7D287FD7FC0F9DB0091810010918200F1
:100AB0002091830030918400601B710B820B930B9B
:100AC0006536710581059105A8F110916000E5DB9F
:100AD00060938100709382008093830090938400E0
:100AE00080917300909174000196909374008093AC
:100AF00073000A97FCF0D1DBC0907500D0907600AF
:100B0000E0907700F09078006C197D098E099F09BC
:100B1000633371058105910568F0BFDB6093750053
:100B20007093760080937700909378001123B1F151
:100B3000109260006091600084E0F0DAA114B104CA
:100B400009F43ACE5DDA38CE6C2D82E090E028DCF4
:100B5000E114F10421F40115110509F4DFCE6E2D25
:100B600081E090E01DDC0115110509F4DBCE602F5A
:100B700090E080E015DCDACE0F3111050CF46ACF7D
:100B80006FEF84E090E024DC6FEF85E090E020DC04
:100B90006FEF86E090E01CDC6FE759CF81E0809337
:100BA0006000C8CF60E084E0B9DA81E08093600043
:100BB000109274001092730070DB60938100709348
:100BC0008200809383009093840067DB60937500BC
:100BD000709376008093770090937800AFCFCF9397
:100BE000DF931092F2001092F10082E090E0909377
:100BF000F4008093F30081E090E09093F6008093FE
:100C0000F5009093F8008093F70061E080E0BEDA91
:100C100061E08091F300BADA61E08091F500B6DA24
:100C200061E08091F5007ADA1092F2001092F10002
:100C3000E1EBF0E0119280E0E13FF807D9F7D0E076
:100C4000C0E08091F7009091F800C817D9074CF5E3
:100C500040E06FE0CE012DDB8091F7009091F8002D
:100C6000C817D90724F447E06BE0CE0122DB40E04F
:100C700069E0CE011EDB8091F7009091F800C81763
:100C8000D90714F4CE016DDB8091F7009091F80044
:100C9000C817D90724F440E06CE0CE010ADB2196A6
:100CA000D0CFDF91CF9108955058BB27AA270ED0FF
:100CB00075C166D130F06BD120F031F49F3F11F453
:100CC0001EF45BC10EF4E095E7FB51C1E92F77D12B
:100CD00080F3BA17620773078407950718F071F459
:100CE0009EF58FC10EF4E0950B2EBA2FA02D0B01AF
:100CF000B90190010C01CA01A0011124FF27591B61
:100D000099F0593F50F4503E68F11A16F040A22F66
:100D1000232F342F4427585FF3CF469537952795D7
:100D2000A795F0405395C9F77EF41F16BA0B620BD6
:100D3000730B840BBAF09150A1F0FF0FBB1F661F1D
:100D4000771F881FC2F70EC0BA0F621F731F841F60
:100D500048F4879577956795B795F7959E3F08F086
:100D6000B3CF9395880F08F09927EE0F9795879545
:100D70000895D9D008F481E008950CD00FC107D1AF
:100D800040F0FED030F021F45F3F19F0F0C0511177
:100D900039C1F3C014D198F39923C9F35523B1F3A2
:100DA000951B550BBB27AA2762177307840738F0DA
:100DB0009F5F5F4F220F331F441FAA1FA9F333D039
:100DC0000E2E3AF0E0E830D091505040E695001CED
:100DD000CAF729D0FE2F27D0660F771F881FBB1FA9
:100DE000261737074807AB07B0E809F0BB0B802D83
:100DF000BF01FF2793585F4F2AF09E3F510568F0CF
:100E0000B6C000C15F3FECF3983EDCF38695779562
:100E10006795B795F7959F5FC9F7880F911D9695D0
:100E2000879597F90895E1E0660F771F881FBB1F2C
:100E3000621773078407BA0720F0621B730B840BD9
:100E4000BA0BEE1F88F7E095089504D06894B111AD
:100E5000D9C00895BCD088F09F5790F0B92F99273A
:100E6000B751A0F0D1F0660F771F881F991F1AF0B5
:100E7000BA95C9F712C0B13081F0C3D0B1E008957E
:100E8000C0C0672F782F8827B85F39F0B93FCCF3FF
:100E9000869577956795B395D9F73EF490958095AB
:100EA000709561957F4F8F4F9F4F0895E89409C0CB
:100EB00097FB3EF490958095709561957F4F8F4F8D
:100EC0009F4F9923A9F0F92F96E9BB279395F695A3
:100ED000879577956795B795F111F8CFFAF4BB0F21
:100EE00011F460FF1BC06F5F7F4F8F4F9F4F16C085
:100EF000882311F096E911C0772321F09EE8872F0F
:100F0000762F05C0662371F096E8862F70E060E0CA
:100F10002AF09A95660F771F881FDAF7880F969543
:100F2000879597F90895990F0008550FAA0BE0E8E7
:100F3000FEEF16161706E807F907C0F0121613069B
:100F4000E407F50798F0621B730B840B950B39F4DB
:100F50000A2661F0232B242B252B21F408950A2641
:100F600009F4A140A6958FEF811D811D089597F981
:100F70009F6780E870E060E008959FEF80EC08953F
:100F800000240A9416161706180609060895002468
:100F90000A9412161306140605060895092E0394E2
:100FA000000C11F4882352F0BB0F40F4BF2B11F456
:100FB00060FF04C06F5F7F4F8F4F9F4F089557FDB5
:100FC0009058440F551F59F05F3F71F04795880FB7
:100FD00097FB991F61F09F3F79F08795089512164E
:100FE00013061406551FF2CF4695F1DF08C01616FA
:100FF00017061806991FF1CF8695710561050894AB
:101000000895E894BB2766277727CB0197F90895C1
:101010008ADF08F48FEF08950AD0C0CFB1DF28F03F
:10102000B6DF18F0952309F0A2CFA7CFEBCFC7DF2B
:10103000A8F39923D9F35523C9F3950F50E0551F11
:10104000AA27EE27FF27BB2700240894679520F4E2
:10105000E20FF31FB41F0A1E220F331F441FAA1FE3
:101060006695A9F7779530F4F30FB41F0A1E121E88
:1010700008F46395330F441FAA1F221F769599F732
:10108000879520F4B40F0A1E121E631F440FAA1F77
:10109000221F331F8695A9F7862F712D602D1124ED
:1010A0009F5750408AF0E1F088234AF0EE0FFF1F6F
:1010B000BB1F661F771F881F91505040A9F79E3FA6
:1010C000510570F054CF9ECF5F3FECF3983EDCF3B8
:1010D000869577956795B795F795E7959F5FC1F7E3
:1010E000FE2B880F911D9695879597F9089597FB8C
:1010F000072E16F4009406D077FD08D00BD007FC1D
:1011000005D03EF4909581959F4F08957095619517
:101110007F4F0895AA1BBB1B51E107C0AA1FBB1F2D
:10112000A617B70710F0A61BB70B881F991F5A9573
:10113000A9F780959095BC01CD010895EE0FFF1F92
:0C1140000590F491E02D0994F894FFCF85
:0A114C00010103070F1F3F7FFF00A2
:00000001FF
